S018000073656C662064726976696E67206361722E73726563F9
S11300000C942A000C94A1030C9447000C94470010
S11300100C9447000C9447000C9447000C94470040
S11300200C9447000C9447000C9447000C94E20392
S11300300C9447000C9447000C9447000C94470020
S11300400C9447000C9447000C9447000C94470010
S11300500C94470011241FBECFE5D8E0DEBFCDBF0E
S113006010E0A0E6B0E0E6EDFAE002C005900D92E3
S1130070A837B107D9F720E0A8E7B0E001C01D9286
S1130080A239B207E1F70E9449000C9469050C9467
S113009000000E9422020E94DA020E944E010E9485
S11300A05B020E945B020E941403609378007093C9
S11300B0790080937A0090937B006091780070912E
S11300C0790080917A0090917B000E94BC022FEF0E
S11300D083EC99E0215080409040E1F700C000009B
S11300E00E941403609378007093790080937A00DF
S11300F090937B008091780090917900A0917A0090
S1130100B0917B008397A105B105F8F060E080E031
S11301100E946D0160E081E00E946D018FE59AEE1E
S11301200197F1F700C0000080E00E94B50181E072
S11301300E94B50180E690E00E94A7028FE59AEE46
S11301400197F1F700C00000ACCF80917800909146
S11301507900A0917A00B0917B000F97A105B105B9
S113016008F09FCF8AE590E00E94FB020E941403EE
S1130170609378007093790080937A0090937B0069
S11301808091780090917900A0917A00B0917B00E1
S11301900F97A105B105D8F00E945B0288E690E0B4
S11301A00E94A70260E080E00E946D0180E00E944E
S11301B0B5019FEF23ED80E3915020408040E1F7AB
S11301C000C0000086EA9FEF0E94FB025EC080919F
S11301D0780090917900A0917A00B0917B000F97FC
S11301E0A105B10508F051C08CE49FEF0E94FB0209
S11301F00E941403609378007093790080937A00CE
S113020090937B008091780090917900A0917A007E
S1130210B0917B000F97A105B105D8F00E945B0255
S11302208EE690E00E94A70260E080E00E946D01EB
S113023080E00E94B5019FEF23ED80E391502040C0
S11302408040E1F700C000008AE590E00E94FB02D4
S11302501CC08091780090917900A0917A00B091AF
S11302607B000F97A105B10580F40E945B0283E730
S113027090E00E94A70280E00E94B50181E00E9404
S1130280B5018AE590E00E94FB021092780010927A
S1130290790010927A0010927B0003CF41E064E071
S11302A083E00E940A0441E065E083E00E940A04BE
S11302B041E063E082E00E940A0441E064E082E0FD
S11302C00E940A0441E065E082E00E940A0441E0E1
S11302D066E082E00E940A040895CF93C62F882323
S11302E019F0813009F13FC041E064E083E00E94ED
S11302F07B04CC2319F0C13061F035C041E063E0E8
S113030082E00E947B0440E064E082E00E947B047F
S11303102AC040E063E082E00E947B0441E064E0A4
S113032082E00E947B041FC041E065E083E00E94FC
S11303307B04CC2319F0C13061F015C041E065E0C5
S113034082E00E947B0440E066E082E00E947B043D
S11303500AC040E065E082E00E947B0441E066E080
S113036082E00E947B04CF910895882319F08130A4
S113037089F0089540E064E083E00E947B0440E05B
S113038063E082E00E947B0440E064E082E00E943B
S11303907B04089540E065E083E00E947B0440E034
S11303A065E082E00E947B0440E066E082E00E9417
S11303B07B040895CF93C82F40E061E081E00E9460
S11303C07B0440E062E081E00E947B0440E063E063
S11303D081E00E947B048BB39C2F907F8F70892BCC
S11303E08BBB41E063E081E00E947B048FE99FE0E6
S11303F00197F1F700C0000040E063E081E00E9453
S11304007B042BB330E1C39FC0011124922F9F7052
S1130410892B8BBB41E063E081E00E947B048FE980
S11304209FE00197F1F700C0000040E063E081E045
S11304300E947B048FE19EE40197F1F700C0000065
S1130440CF91089541E061E081E00E940A0441E017
S113045062E081E00E940A0441E063E081E00E94DE
S11304600A0441E064E080E00E940A0441E065E09F
S113047080E00E940A0441E066E080E00E940A04F1
S113048041E067E080E00E940A0483E30E94DA010D
S113049082E30E94DA0188E20E94DA0182E00E948B
S11304A0DA018CE00E94DA0181E00E94DA0186E040
S11304B00E94DA01089581E00E94DA010895CF9341
S11304C0C82F41E061E081E00E947B0440E062E0EB
S11304D081E00E947B0440E063E081E00E947B04B1
S11304E08BB39C2F907F8F70892B8BBB41E063E093
S11304F081E00E947B048FE99FE00197F1F700C03F
S1130500000040E063E081E00E947B042BB330E113
S1130510C39FC0011124922F9F70892B8BBB41E094
S113052063E081E00E947B048FE99FE00197F1F78B
S113053000C0000040E063E081E00E947B048FE1A2
S11305409EE40197F1F700C00000CF910895CF9386
S1130550DF93EC018881882361F021960E945F0279
S11305608FE39CE90197F1F700C0000089918111A4
S1130570F5CFDF91CF910895CF93DF93CDB7DEB759
S11305802A970FB6F894DEBF0FBECDBF2AE030E045
S1130590AE014F5F5F4F0E941D05CE0101960E9480
S11305A0A7022A960FB6F894DEBF0FBECDBFDF9127
S11305B0CF9108958D9A8EB580618EBD8EB5886079
S11305C08EBD8FB582608FBD8FB58E7F8FBD8FB589
S11305D080688FBD8FB58F7B8FBD8EB584608EBDD7
S11305E08EB58D7F8EBD8EB58E7F8EBD82EE94E0EE
S11305F097BD86BD089546B557B59C01429FC0017D
S1130600439F900D529F900D11249C013695279580
S113061036952795ABE7B4E10E940E05969587952C
S113062001979BBD8ABD0895CF92DF92EF92FF920E
S11306300F931F9341E063E083E00E940A048BB7A9
S113064080648BBF85B7816085BF83B7846083BFB7
S113065083B7816083BF89B7816089BF83B7877F90
S113066083BF83B78F7B83BF789441E063E083E0EB
S11306700E947B0480E58A95F1F740E063E083E023
S11306800E947B048091880090918900A0918A0047
S1130690B0918B00C0908400D0908500E0908600DB
S11306A0F090870040918000509181006091820019
S11306B0709183000027182F292F3A2FDB01CA01DC
S11306C081509F4FAF4FBF4F800F911FA21FB31F89
S11306D08C199D09AE09BF0980937C0090937D001D
S11306E0A0937E00B0937F0060917C0070917D00A8
S11306F080917E0090917F002AE330E040E050E05A
S11307000E94EC0420938E0030938F00409390005D
S113071050939100109288001092890010928A00E0
S113072010928B0060918E0070918F0080919000E8
S1130730909191001F910F91FF90EF90DF90CF90D7
S113074008951F920F920FB60F9211248F939F93C7
S1130750AF93BF9380918C0090918D00019789F4A1
S113076082B790E0A0E0B0E0809380009093810095
S1130770A0938200B093830010928D0010928C009D
S113078018C080918C0090918D00892B91F482B7D0
S113079090E0A0E0B0E08093840090938500A09363
S11307A08600B093870081E090E090938D00809361
S11307B08C00BF91AF919F918F910F900FBE0F90BE
S11307C01F9018951F920F920FB60F9211248F93BA
S11307D09F93AF93BF9309B600FE13C08091880026
S11307E090918900A0918A00B0918B000196A11D7F
S11307F0B11D8093880090938900A0938A00B093E0
S11308008B00BF91AF919F918F910F900FBE0F906E
S11308101F901895442319F04130C9F1089581308F
S113082091F028F08230D9F0833029F108952AB369
S113083081E090E002C0880F991F6A95E2F78095E5
S113084082238ABB089527B381E090E002C0880F19
S1130850991F6A95E2F78095822387BB089524B394
S113086081E090E002C0880F991F6A95E2F78095B5
S1130870822384BB089521B381E090E002C0880FF5
S1130880991F6A95E2F78095822381BB0895813090
S113089089F028F08230C9F0833011F108952AB329
S11308A081E090E002C0880F991F6A95E2F7822BDD
S11308B08ABB089527B381E090E002C0880F991F96
S11308C06A95E2F7822B87BB089524B381E090E018
S11308D002C0880F991F6A95E2F7822B84BB0895A2
S11308E021B381E090E002C0880F991F6A95E2F776
S11308F0822B81BB0895442319F04130C9F1089536
S1130900813091F028F08230D9F0833029F10895B4
S11309102BB381E090E002C0880F991F6A95E2F73B
S1130920809582238BBB089528B381E090E002C0B8
S1130930880F991F6A95E2F78095822388BB0895F2
S113094025B381E090E002C0880F991F6A95E2F711
S11309508095822385BB089522B381E090E002C094
S1130960880F991F6A95E2F78095822382BB0895C8
S1130970813089F028F08230C9F0833011F1089574
S11309802BB381E090E002C0880F991F6A95E2F7CB
S1130990822B8BBB089528B381E090E002C0880FBE
S11309A0991F6A95E2F7822B88BB089525B381E0ED
S11309B090E002C0880F991F6A95E2F7822B85BBED
S11309C0089522B381E090E002C0880F991F6A95D0
S11309D0E2F7822B82BB0895A1E21A2EAA1BBB1B4D
S11309E0FD010DC0AA1FBB1FEE1FFF1FA217B307F7
S11309F0E407F50720F0A21BB30BE40BF50B661F0D
S1130A00771F881F991F1A9469F7609570958095D0
S1130A1090959B01AC01BD01CF010895A29FB00147
S1130A20B39FC001A39F700D811D1124911DB29F1E
S1130A30700D811D1124911D08952532310520F476
S1130A40223010F00C942805FA011082CA0108958E
S1130A50BB272A3051F4992342F4BDE29095809546
S1130A60709561957F4F8F4F9F4F0C943805BB272E
S1130A70FA01A62F6217710581059105330B30FB2E
S1130A8066F0AA27660F771F881F991FAA1FA2174F
S1130A9010F0A21B63953850A9F7A05DAA3308F0A3
S1130AA0A95DA19336F7B111B1931082CA010C94D8
S1130AB05905DC01FC01672F71917723E1F7329727
S1130AC004C07C916D9370836291AE17BF07C8F325
S1090AD00895F894FFCF25
S1130AD6666F7277617264007269676874006C6528
S10B0AE666740053746F700084
S9030000FC
